:020000040800F2
:1000000000280020A90E0008390E00083F0E000845
:10001000450E00084B0E0008510E000800000000BD
:10002000000000000000000000000000570E000863
:10003000630E0008000000006F0E00087B0E000831
:10004000F10E0008F10E0008F10E0008F10E000894
:10005000F10E0008F10E0008F10E0008F10E000884
:10006000F10E0008F10E0008F10E0008F10E000874
:10007000F10E0008F10E0008F10E0008F10E000864
:10008000F10E0008F10E0008F10E0008F10E000854
:10009000F10E0008F10E0008F10E0008F10E000844
:1000A000F10E0008F10E0008F10E0008F10E000834
:1000B000890E0008F10E000800000000F10E000893
:1000C000F10E00080000000000000000F10E000822
:1000D00000000000F10E0008F10E00080000000012
:1000E000F10E0008F10E0008F10E000800000000FB
:1000F0000000000000000000000000000000000000
:0C01000000000000000000005FF808F1A3
:10010C0010B5054C237833B9044B13B10448AFF345
:10011C0000800123237010BD10000020000000009F
:10012C000825000808B5034B1BB103490348AFF37E
:10013C00008008BD00000000140000200825000805
:10014C0080B400AF2D4B1B68092B06DC2B4B1B68B6
:10015C002B4A53602A4B00221A60284B1B68092B30
:10016C001CDD264B1B68182B18DC244B1B68254AFE
:10017C0082FB03129210DB17D31A214A13601F4B18
:10018C001968204B83FB01239A10CB17D21A134604
:10019C009B0013445B00CA1A194B5A601A4B1B681C
:1001AC00092B06DC164B00229A60174B1B68144A6D
:1001BC00D360154B1B68092B1CDD134B1B683C2BA8
:1001CC0018DC114B1B680F4A82FB03129210DB17D1
:1001DC00D31A0B4A93600C4B19680A4B83FB01230F
:1001EC009A10CB17D21A13469B0013445B00CA1A01
:1001FC00034BDA6000BFBD4680BC70474C0000204A
:10020C0038000020676666664800002080B582B022
:10021C0000AF78607B68032B00F2478401A252F890
:10022C0023F000BF410200084D04000869060008D5
:10023C0099080008C34B1B68002BC0F23884C14BD3
:10024C001B68032B00F33384BE4B1B68BE4A52F869
:10025C002330092B00F2EF8001A252F823F000BFEB
:10026C0095020008C1020008ED02000819030008FD
:10027C0045030008710300089D030008C90300082A
:10028C00F50300081704000800224021AF4801F0D4
:10029C0039F901224FF46071AC4801F033F90122B5
:1002AC004021AB4801F02EF900223F21A84801F073
:1002BC0029F9C1E000224021A44801F023F90122D0
:1002CC004FF46071A14801F01DF901227921A04879
:1002DC0001F018F9002206219D4801F013F9ABE05A
:1002EC0000224021994801F00DF901224FF4607170
:1002FC00964801F007F901222421954801F002F9F2
:10030C0000225B21924801F0FDF895E0002240218B
:10031C008E4801F0F7F801224FF460718B4801F020
:10032C00F1F8012230218A4801F0ECF800224F212B
:10033C00874801F0E7F87FE000224021834801F074
:10034C00E1F801224FF46071804801F0DBF80122E2
:10035C0019217F4801F0D6F8002266217C4801F073
:10036C00D1F869E000224021784801F0CBF8012255
:10037C004FF46071754801F0C5F8012212217448E0
:10038C0001F0C0F800226D21714801F0BBF853E078
:10039C00002240216D4801F0B5F801224FF4607144
:1003AC006A4801F0AFF801220221694801F0AAF86D
:1003BC0000227D21664801F0A5F83DE00022402195
:1003CC00624801F09FF801224FF460715F4801F020
:1003DC0099F8012278215E4801F094F80022072157
:1003EC005B4801F08FF827E000224021574801F0CC
:1003FC0089F801224FF46071544801F083F800220F
:10040C007F21534801F07EF816E0002240214F482E
:10041C0001F078F801224FF460714C4801F072F849
:10042C00012210214A4801F06DF800226F21484842
:10043C0001F068F800E000BF424B01221A6036E37D
:10044C00404B1B68002BC0F234833E4B1B68032BC4
:10045C0000F32F833B4B1B683B4A52F82330092B8C
:10046C0000F2F78001A252F823F000BFA1040008AB
:10047C00CD040008F90400082505000861050008F2
:10048C008D050008B9050008E505000811060008EF
:10049C0033060008002280212C4801F033F8012299
:1004AC004FF45071294801F02DF8012240212848C1
:1004BC0001F028F800223F21254801F023F8C9E07B
:1004CC0000228021214801F01DF801224FF45071C7
:1004DC001E4801F017F8012279211D4801F012F88D
:1004EC00002206211A4801F00DF8B3E00022802109
:1004FC00164801F007F801224FF45071134801F02F
:10050C0001F801222421124800F0FCFF00225B219B
:10051C000F4800F0F7FF9DE0002280210B4800F00F
:10052C00F1FF01224FF45071084800F0EBFF01225B
:10053C003021074800F0E6FF00224F21044800F06C
:10054C00E1FF87E02C00002038000020000801406B
:10055C00000C014000228021C84800F0D3FF01228A
:10056C004FF45071C54800F0CDFF01221921C44849
:10057C0000F0C8FF00226621C14800F0C3FF69E00B
:10058C0000228021BD4800F0BDFF01224FF45071C4
:10059C00BA4800F0B7FF01221221B94800F0B2FFAF
:1005AC0000226D21B64800F0ADFF53E000228021FF
:1005BC00B24800F0A7FF01224FF45071AF4800F091
:1005CC00A1FF01220221AE4800F09CFF00227D21F8
:1005DC00AB4800F097FF3DE000228021A74800F0D7
:1005EC0091FF01224FF45071A44800F08BFF0122BF
:1005FC007821A34800F086FF00220721A04800F0D4
:10060C0081FF27E0002280219C4800F07BFF012223
:10061C004FF45071994800F075FF00227F219848E3
:10062C0000F070FF16E000228021944800F06AFF71
:10063C0001224FF45071914800F064FF0122102107
:10064C008F4800F05FFF00226F218D4800F05AFFA9
:10065C0000E000BF8B4B02221A602AE2894B1B6818
:10066C00002BC0F22882874B1B68032B00F32382DC
:10067C00844B1B68844A52F82330092B00F2F98012
:10068C0001A252F823F000BFBD060008EB060008DB
:10069C00190700084707000875070008A30700089A
:1006AC00D1070008FF0700082D08000851080008B2
:1006BC0000224FF48071714800F024FF01224FF4A6
:1006CC0030716E4800F01EFF012240216C4800F092
:1006DC0019FF00223F216A4800F014FFCAE00022F3
:1006EC004FF48071654800F00DFF01224FF430711A
:1006FC00624800F007FF01227921614800F002FFF7
:10070C00002206215E4800F0FDFEB3E000224FF40B
:10071C0080715A4800F0F6FE01224FF430715748B0
:10072C0000F0F0FE01222421554800F0EBFE0022DF
:10073C005B21534800F0E6FE9CE000224FF48071F0
:10074C004E4800F0DFFE01224FF430714B4800F0B0
:10075C00D9FE012230214A4800F0D4FE00224F215C
:10076C00474800F0CFFE85E000224FF480714348EB
:10077C0000F0C8FE01224FF43071404800F0C2FE78
:10078C00012219213E4800F0BDFE002266213C48A2
:10079C0000F0B8FE6EE000224FF48071374800F094
:1007AC00B1FE01224FF43071344800F0ABFE01224F
:1007BC001221334800F0A6FE00226D21304800F0D3
:1007CC00A1FE57E000224FF480712C4800F09AFEF5
:1007DC0001224FF43071294800F094FE01220221CD
:1007EC00274800F08FFE00227D21254800F08AFE6C
:1007FC0040E000224FF48071204800F083FE01227B
:10080C004FF430711D4800F07DFE012278211C4808
:10081C0000F078FE00220721194800F073FE29E051
:10082C0000224FF48071154800F06CFE01224FF449
:10083C003071124800F066FE00227F21104800F053
:10084C0061FE17E000224FF480710C4800F05AFE54
:10085C0001224FF43071094800F054FE012210219E
:10086C00074800F04FFE00226F21054800F04AFEB9
:10087C0000E000BF034B03221A601CE1000801409A
:10088C00000C01402C000020380000208C4B1B6811
:10089C00002BC0F20A818A4B1B68032B00F30581E5
:1008AC00874B1B68874A52F82330092B00F2F980DA
:1008BC0001A252F823F000BFED0800081B09000844
:1008CC004909000877090008A5090008D3090008A0
:1008DC00010A00082F0A00085D0A0008810A0008B6
:1008EC0000224FF40071784800F00CFE01224FF406
:1008FC00E071754800F006FE01224021734800F0BB
:10090C0001FE00223F21714800F0FCFDCAE00022EC
:10091C004FF400716C4800F0F5FD01224FF4E071CA
:10092C00694800F0EFFD01227921684800F0EAFDEA
:10093C0000220621654800F0E5FDB3E000224FF4EB
:10094C000071614800F0DEFD01224FF4E0715E4859
:10095C0000F0D8FD012224215C4800F0D3FD0022D8
:10096C005B215A4800F0CEFD9CE000224FF4007150
:10097C00554800F0C7FD01224FF4E071524800F0D9
:10098C00C1FD01223021514800F0BCFD00224F2155
:10099C004E4800F0B7FD85E000224FF400714A4844
:1009AC0000F0B0FD01224FF4E071474800F0AAFDC1
:1009BC0001221921454800F0A5FD0022662143487B
:1009CC0000F0A0FD6EE000224FF400713E4800F0F4
:1009DC0099FD01224FF4E0713B4800F093FD012298
:1009EC0012213A4800F08EFD00226D21374800F0AC
:1009FC0089FD57E000224FF40071334800F082FD6E
:100A0C0001224FF4E071304800F07CFD01220221FC
:100A1C002E4800F077FD00227D212C4800F072FD5D
:100A2C0040E000224FF40071274800F06BFD0122DA
:100A3C004FF4E071244800F065FD01227821234831
:100A4C0000F060FD00220721204800F05BFD29E04A
:100A5C0000224FF400711C4800F054FD01224FF4A9
:100A6C00E071194800F04EFD00227F21174800F07C
:100A7C0049FD17E000224FF40071134800F042FDCD
:100A8C0001224FF4E071104800F03CFD01221021CE
:100A9C000E4800F037FD00226F210C4800F032FDAB
:100AAC0000E000BF064B00221A6000BF04E000BF4C
:100ABC0002E000BF00E000BF00BF0837BD4680BDAC
:100ACC002C0000203800002000080140000C0140E0
:100ADC0080B500AF00F008FA00F044F800F0CAF856
:100AEC0000F07CF81B4801F051F91B4B0F221A60E7
:100AFC001A4B08221A601A4B32221A60184B1B68C8
:100B0C000133174A1360164B1B683B2B07DD134B45
:100B1C001B680133114A1360114B00221A600F4BF2
:100B2C001B683B2B07DD0C4B1B6801330A4A136017
:100B3C000A4B00221A60084B1B68172B02DD064B70
:100B4C0000221A60FFF7FCFA4FF4617000F02EFAE5
:100B5C00D4E700BF500000204C00002048000020CB
:100B6C003400002080B590B000AF07F118032822A4
:100B7C000021184601F0BAFC3B1D00221A605A6095
:100B8C009A60DA601A610223BB610123BB621023F5
:100B9C00FB6200237B6307F11803184600F0CAFCC4
:100BAC000346002B01D000F0E5F80F237B600023F7
:100BBC00BB600023FB6000233B6100237B613B1D7A
:100BCC000021184600F036FF0346002B01D000F040
:100BDC00D1F800BF4037BD4680BD000080B586B05F
:100BEC0000AF07F1080300221A605A609A60DA60BD
:100BFC003B4600221A605A601D4B4FF080421A602F
:100C0C001B4B41F63F725A60194B00229A60184BED
:100C1C000922DA60164B00221A61154B00229A61E8
:100C2C00134801F063F80346002B01D000F0A2F842
:100C3C004FF48053BB6007F1080319460C4801F0D0
:100C4C00E1F90346002B01D000F094F800233B603F
:100C5C0000237B603B461946054801F0B9FB03466F
:100C6C00002B01D000F086F800BF1837BD4680BDC0
:100C7C005000002080B586B000AF07F108030022B9
:100C8C001A605A609A60DA60214B9B69204A43F0E3
:100C9C00040393611E4B9B6903F004037B607B6828
:100CAC001B4B9B691A4A43F008039361184B9B69D1
:100CBC0003F008033B603B6800224FF47C7115483D
:100CCC0000F020FC00227F21134800F01BFC4FF4A5
:100CDC007C73BB600123FB6000233B6102237B61BF
:100CEC0007F1080319460B4800F092FA7F23BB600A
:100CFC000123FB6000233B6102237B6107F10803A6
:100D0C001946054800F084FA00BF1837BD4680BD6F
:100D1C000010024000080140000C014080B582B078
:100D2C0000AF7860114B1B68002B1ADD0F4B1B6852
:100D3C00013B0E4A13600D4B1B68002B11DC0B4B57
:100D4C0064221A600A4B1B68032B02DD084B00223D
:100D5C001A60074B1B685A1C05490A601846FFF7B6
:100D6C0055FA00BF0837BD4680BD00BF000000200B
:100D7C003000002080B400AF72B600BFFEE7000068
:100D8C0080B485B000AF154B9B69144A43F0010346
:100D9C009361124B9B6903F00103BB60BB680F4B63
:100DAC00DB690E4A43F08053D3610C4BDB6903F0D3
:100DBC0080537B607B680A4B5B68FB60FB6823F0AD
:100DCC00E063FB60FB6843F08063FB60044AFB68F4
:100DDC00536000BF1437BD4680BC70470010024002
:100DEC000000014080B584B000AF78607B681B6860
:100DFC00B3F1804F13D10C4BDB690B4A43F0010369
:100E0C00D361094BDB6903F00103FB60FB68002233
:100E1C0000211C2000F0C5F91C2000F0DEF900BFF9
:100E2C001037BD4680BD00BF0010024080B400AF3B
:100E3C00FEE780B400AFFEE780B400AFFEE780B4FD
:100E4C0000AFFEE780B400AFFEE780B400AF00BF98
:100E5C00BD4680BC704780B400AF00BFBD4680BCAF
:100E6C00704780B400AF00BFBD4680BC704780B5F2
:100E7C0000AF00F07FF800BF80BD000080B500AF70
:100E8C00024800F0CFFF00BF80BD00BF5000002023
:100E9C0080B400AF00BFBD4680BC7047FFF7F8FFC1
:100EAC000B480C490C4A002302E0D458C4500433BC
:100EBC00C4188C42F9D3094A094C002301E0136091
:100ECC000432A242FBD301F0EDFAFFF701FE7047AA
:100EDC0000000020100000204C250008100000200D
:100EEC009C000020FEE7000080B500AF084B1B689B
:100EFC00074A43F010031360032000F047F90F205A
:100F0C0000F008F8FFF73CFF0023184680BD00BF37
:100F1C000020024080B582B000AF7860124B1A6896
:100F2C00124B1B7819464FF47A73B3FBF1F3B2FBF7
:100F3C00F3F3184600F05FF90346002B01D00123B0
:100F4C000EE07B680F2B0AD8002279684FF0FF3037
:100F5C0000F027F9064A7B681360002300E00123A8
:100F6C0018460837BD4680BD040000200C00002048
:100F7C000800002080B400AF054B1B781A46054BC7
:100F8C001B681344034A136000BFBD4680BC704706
:100F9C000C0000209800002080B400AF024B1B68AE
:100FAC001846BD4680BC70479800002080B584B0C0
:100FBC0000AF7860FFF7F0FFB8607B68FB60FB6800
:100FCC00B3F1FF3F05D00A4B1B781A46FB6813445C
:100FDC00FB6000BFFFF7E0FF0246BB68D31AFA685C
:100FEC009A42F7D800BF00BF1037BD4680BD00BF86
:100FFC000C00002080B485B000AF78607B6803F0F3
:10100C000703FB600C4BDB68BB60BA684FF6FF0351
:10101C001340BB60FB681A02BB68134343F0BF6309
:10102C0043F40033BB60044ABB68D36000BF143781
:10103C00BD4680BC704700BF00ED00E080B400AF3F
:10104C00044BDB681B0A03F007031846BD4680BC43
:10105C00704700BF00ED00E080B483B000AF0346E2
:10106C00FB7197F90730002B0BDBFB7903F01F02A8
:10107C00064997F907305B09012000FA02F241F8A2
:10108C00232000BF0C37BD4680BC704700E100E058
:10109C0080B483B000AF03463960FB7197F9073019
:1010AC00002B0ADB3B68DAB20C4997F907301201C6
:1010BC00D2B20B4483F800230AE03B68DAB2084949
:1010CC00FB7903F00F03043B1201D2B20B441A76E6
:1010DC0000BF0C37BD4680BC704700BF00E100E08C
:1010EC0000ED00E080B489B000AFF860B9607A60C0
:1010FC00FB6803F00703FB61FB69C3F10703042BD7
:10110C0028BF0423BB61FB690433062B02D9FB699E
:10111C00033B00E000237B614FF0FF32BB6902FA16
:10112C0003F3DA43BB681A407B699A404FF0FF31F6
:10113C007B6901FA03F3D9437B680B4013431846D0
:10114C002437BD4680BC704780B582B000AF786054
:10115C007B68013BB3F1807F01D301230FE00A4A86
:10116C007B68013B53600F214FF0FF30FFF790FF7E
:10117C00054B00229A60044B07221A600023184684
:10118C000837BD4680BD00BF10E000E080B582B0DE
:10119C0000AF78607868FFF72DFF00BF0837BD46B9
:1011AC0080BD80B586B000AF0346B9607A60FB7332
:1011BC0000237B61FFF742FF78617A68B968786930
:1011CC00FFF790FF024697F90F3011461846FFF7CC
:1011DC005FFF00BF1837BD4680BD80B582B000AF41
:1011EC000346FB7197F907301846FFF735FF00BF30
:1011FC000837BD4680BD80B582B000AF7860786896
:10120C00FFF7A2FF034618460837BD4680BD000015
:10121C0080B48BB000AF7860396000237B62002310
:10122C003B6248E101227B6A02FA03F3FB613B68F3
:10123C001B68FA691340BB61BA69FB699A4240F0BA
:10124C0037813B685B68A34A93425ED0A14A9342C4
:10125C0075D8A14A934258D09F4A93426FD89F4A5F
:10126C00934252D09D4A934269D89D4A93424CD0A6
:10127C009B4A934263D89B4A934246D0994A9342E5
:10128C005DD8122B2AD8122B59D801A252F823F070
:10129C0017130008F1120008031300084513000887
:1012AC004B1300084B1300084B1300084B1300089A
:1012BC004B1300084B1300084B1300084B1300088A
:1012CC004B1300084B1300084B1300084B1300087A
:1012DC004B130008F91200080D130008824A9342C0
:1012EC0013D02CE03B68DB683B6229E03B68DB6891
:1012FC0004333B6224E03B68DB6808333B621FE04D
:10130C003B68DB680C333B621AE03B689B68002B44
:10131C0002D104233B6213E03B689B68012B05D18F
:10132C0008233B627B68FA691A6109E008233B6277
:10133C007B68FA695A6103E000233B6200E000BF5E
:10134C00BB69FF2B01D87B6801E07B6804337B61B0
:10135C00BB69FF2B02D87B6A9B0002E07B6A083BCF
:10136C009B003B617B691A680F213B6901FA03F30F
:10137C00DB431A40396A3B6901FA03F31A437B6970
:10138C001A603B685B6803F08053002B00F0908080
:10139C00564B9B69554A43F001039361534B9B6930
:1013AC0003F00103BB60BB68514A7B6A9B080233A4
:1013BC0052F82330FB607B6A03F003039B000F227F
:1013CC0002FA03F3DB43FA681340FB607B68494A7B
:1013DC0093420DD07B68484A934207D07B68474ABA
:1013EC00934201D1022304E0032302E0012300E035
:1013FC0000237A6A02F0030292009340FA681343C6
:10140C00FB603B497B6A9B080233FA6841F8232056
:10141C003B685B6803F48013002B06D0384B9A684A
:10142C003749BB6913438B6006E0354B9A68BB693F
:10143C00DB43334913408B603B685B6803F4001358
:10144C00002B06D02E4BDA682D49BB691343CB60B9
:10145C0006E02B4BDA68BB69DB4329491340CB60B0
:10146C003B685B6803F40033002B06D0244B5A68AE
:10147C002349BB6913434B6006E0214B5A68BB6997
:10148C00DB431F4913404B603B685B6803F48033BC
:10149C00002B06D01A4B1A681949BB6913430B6011
:1014AC0006E0174B1A68BB69DB43154913400B6008
:1014BC007B6A01337B623B681A687B6A22FA03F30E
:1014CC00002B7FF4AFAE00BF00BF2C37BD4680BCF5
:1014DC00704700BF000032100000311000002210D5
:1014EC00000021100000121000001110001002402A
:1014FC000000014000080140000C014000100140B8
:10150C000004014080B483B000AF78600B467B8050
:10151C0013467B707B78002B03D07A887B681A612A
:10152C0003E07B881A047B681A6100BF0C37BD4648
:10153C0080BC704780B586B000AF78607B68002BAC
:10154C0001D101236CE27B681B6803F00103002BC3
:10155C0000F08780924B5B6803F00C03042B0CD0DB
:10156C008F4B5B6803F00C03082B12D18C4B5B6820
:10157C0003F48033B3F5803F0BD1894B1B6803F424
:10158C000033002B6CD07B685B68002B68D1012387
:10159C0046E27B685B68B3F5803F06D1804B1B68E5
:1015AC007F4A43F4803313602EE07B685B68002B2A
:1015BC000CD17B4B1B687A4A23F480331360784B35
:1015CC001B68774A23F4802313601DE07B685B68FB
:1015DC00B3F5A02F0CD1724B1B68714A43F48023D6
:1015EC0013606F4B1B686E4A43F4803313600BE03F
:1015FC006B4B1B686A4A23F480331360684B1B687F
:10160C00674A23F4802313607B685B68002B13D03C
:10161C00FFF7C2FC386108E0FFF7BEFC02463B69ED
:10162C00D31A642B01D90323FAE15D4B1B6803F435
:10163C000033002BF0D014E0FFF7AEFC386108E06B
:10164C00FFF7AAFC02463B69D31A642B01D903238A
:10165C00E6E1534B1B6803F40033002BF0D100E0A0
:10166C0000BF7B681B6803F00203002B63D04C4B5C
:10167C005B6803F00C03002B0BD0494B5B6803F049
:10168C000C03082B1CD1464B5B6803F48033002BF6
:10169C0016D1434B1B6803F00203002B05D07B686B
:1016AC001B69012B01D00123BAE13D4B1B6823F0D0
:1016BC00F8027B685B69DB00394913430B603AE045
:1016CC007B681B69002B20D0364B01221A60FFF778
:1016DC0063FC386108E0FFF75FFC02463B69D31AF4
:1016EC00022B01D903239BE12D4B1B6803F0020352
:1016FC00002BF0D02A4B1B6823F0F8027B685B6947
:10170C00DB00274913430B6015E0264B00221A60BF
:10171C00FFF742FC386108E0FFF73EFC02463B69EC
:10172C00D31A022B01D903237AE11D4B1B6803F05A
:10173C000203002BF0D17B681B6803F00803002B1D
:10174C003AD07B689B69002B19D0174B01221A6089
:10175C00FFF722FC386108E0FFF71EFC02463B69EC
:10176C00D31A022B01D903235AE10D4B5B6A03F008
:10177C000203002BF0D0012000F09AFA1CE00A4B77
:10178C0000221A60FFF708FC38610FE0FFF704FC39
:10179C0002463B69D31A022B08D9032340E100BF50
:1017AC000010024000004242800442429E4B5B6AA1
:1017BC0003F00203002BE9D17B681B6803F00403E0
:1017CC00002B00F0A6800023FB75974BDB6903F020
:1017DC008053002B0DD1944BDB69934A43F080531B
:1017EC00D361914BDB6903F08053BB60BB68012371
:1017FC00FB758E4B1B6803F48073002B18D18B4B3D
:10180C001B688A4A43F480731360FFF7C5FB386189
:10181C0008E0FFF7C1FB02463B69D31A642B01D9E0
:10182C000323FDE0814B1B6803F48073002BF0D085
:10183C007B68DB68012B06D17B4B1B6A7A4A43F031
:10184C00010313622DE07B68DB68002B0CD1764B17
:10185C001B6A754A23F001031362734B1B6A724AAD
:10186C0023F0040313621CE07B68DB68052B0CD1AE
:10187C006D4B1B6A6C4A43F0040313626A4B1B6A80
:10188C00694A43F0010313620BE0674B1B6A664A1B
:10189C0023F001031362644B1B6A634A23F00403B5
:1018AC0013627B68DB68002B15D0FFF775FB386182
:1018BC000AE0FFF771FB02463B69D31A41F288320A
:1018CC00934201D90323ABE0574B1B6A03F002038D
:1018DC00002BEED014E0FFF75FFB38610AE0FFF756
:1018EC005BFB02463B69D31A41F28832934201D921
:1018FC00032395E04C4B1B6A03F00203002BEED143
:10190C00FB7D012B05D1484BDB69474A23F0805303
:10191C00D3617B68DB69002B00F08180424B5B68F4
:10192C0003F00C03082B61D07B68DB69022B46D1DA
:10193C003F4B00221A60FFF72FFB386108E0FFF7DE
:10194C002BFB02463B69D31A022B01D9032367E018
:10195C00354B1B6803F00073002BF0D17B681B6ABE
:10196C00B3F5803F08D1304B5B6823F400327B68C1
:10197C009B682D4913434B602B4B5B6823F474120B
:10198C007B68196A7B685B6A0B43274913434B607E
:10199C00274B01221A60FFF7FFFA386108E0FFF7C6
:1019AC00FBFA02463B69D31A022B01D9032337E019
:1019BC001D4B1B6803F00073002BF0D02FE01C4B69
:1019CC0000221A60FFF7E8FA386108E0FFF7E4FA42
:1019DC0002463B69D31A022B01D9032320E0124B98
:1019EC001B6803F00073002BF0D118E07B68DB69F7
:1019FC00012B01D1012313E00B4B5B68FB60FB68EF
:101A0C0003F480327B681B6A9A4206D1FB6803F4AC
:101A1C0070127B685B6A9A4201D0012300E00023BC
:101A2C0018461837BD4680BD0010024000700040BB
:101A3C006000424280B584B000AF786039607B684A
:101A4C00002B01D10123D0E06A4B1B6803F0070384
:101A5C003A689A4210D9674B1B6823F00702654914
:101A6C003B6813430B60634B1B6803F007033A6836
:101A7C009A4201D00123B8E07B681B6803F0020393
:101A8C00002B20D07B681B6803F00403002B05D0CF
:101A9C00594B5B68584A43F4E06353607B681B689E
:101AAC0003F00803002B05D0534B5B68524A43F4F8
:101ABC0060535360504B5B6823F0F0027B689B686B
:101ACC004D4913434B607B681B6803F00103002BEB
:101ADC0040D07B685B68012B07D1474B1B6803F434
:101AEC000033002B15D101237FE07B685B68022B50
:101AFC0007D1414B1B6803F00073002B09D1012364
:101B0C0073E03D4B1B6803F00203002B01D1012352
:101B1C006BE0394B5B6823F003027B685B683649EA
:101B2C0013434B60FFF738FAF8600AE0FFF734FA1A
:101B3C000246FB68D31A41F28832934201D903233F
:101B4C0053E02D4B5B6803F00C027B685B689B00D9
:101B5C009A42EBD1274B1B6803F007033A689A4271
:101B6C0010D2244B1B6823F0070222493B68134315
:101B7C000B60204B1B6803F007033A689A4201D0B4
:101B8C00012332E07B681B6803F00403002B08D0B0
:101B9C00194B5B6823F4E0627B68DB6816491343DE
:101BAC004B607B681B6803F00803002B09D0124BB9
:101BBC005B6823F460527B681B69DB000E4913439E
:101BCC004B6000F021F802460B4B5B681B0903F0DD
:101BDC000F030A49CB5C22FA03F3094A1360094B41
:101BEC001B681846FFF796F9002318461037BD46B8
:101BFC0080BD00BF002002400010024020250008DC
:101C0C00040000200800002080B487B000AF00233F
:101C1C00FB600023BB6000237B6100237B600023FF
:101C2C003B611E4B5B68FB60FB6803F00C03042BF1
:101C3C0002D0082B03D027E0194B3B6127E0FB684F
:101C4C009B0C03F00F03174AD35C7B60FB6803F417
:101C5C008033002B10D0114B5B685B0C03F001033D
:101C6C00114AD35CBB607B680D4A02FB03F2BB6874
:101C7C00B2FBF3F37B6104E07B680C4A02FB03F3D9
:101C8C007B617B693B6102E0054B3B6100BF3B69BB
:101C9C0018461C37BD4680BC704700BF0010024080
:101CAC0000127A00302500084025000800093D008C
:101CBC0080B485B000AF78600A4B1B680A4AA2FB5F
:101CCC0003235B0A7A6802FB03F3FB6000BFFB682B
:101CDC005A1EFA60002BF9D100BF00BF1437BD4665
:101CEC0080BC704704000020D34D621080B582B0D8
:101CFC0000AF78607B68002B01D1012341E07B6849
:101D0C0093F83D30DBB2002B06D17B68002283F8C0
:101D1C003C207868FFF766F87B68022283F83D2048
:101D2C007B681A687B6804331946104600F056FA33
:101D3C007B68012283F846207B68012283F83E20D1
:101D4C007B68012283F83F207B68012283F84020C6
:101D5C007B68012283F841207B68012283F84220B2
:101D6C007B68012283F843207B68012283F844209E
:101D7C007B68012283F845207B68012283F83D2093
:101D8C00002318460837BD4680BD000080B485B0DE
:101D9C0000AF78607B6893F83D30DBB2012B01D04B
:101DAC00012335E07B68022283F83D207B681B68A9
:101DBC00DA687B681B6842F00102DA607B681B689A
:101DCC00164A934209D07B681B68B3F1804F04D04C
:101DDC007B681B68124A934211D17B681B689B6815
:101DEC0003F00703FB60FB68062B10D07B681B68B5
:101DFC001A687B681B6842F001021A6007E07B6876
:101E0C001B681A687B681B6842F001021A60002389
:101E1C0018461437BD4680BC704700BF002C0140EB
:101E2C000004004080B584B000AF78607B681B680C
:101E3C00DB68FB607B681B681B69BB60BB6803F0DD
:101E4C000203002B20D0FB6803F00203002B1BD0F5
:101E5C007B681B686FF002021A617B6801221A779B
:101E6C007B681B689B6903F00303002B03D0786825
:101E7C0000F098F905E0786800F08BF9786800F0CC
:101E8C009AF97B6800221A77BB6803F00403002BD5
:101E9C0020D0FB6803F00403002B1BD07B681B686D
:101EAC006FF004021A617B6802221A777B681B6848
:101EBC009B6903F44073002B03D0786800F072F92F
:101ECC0005E0786800F065F9786800F074F97B68D3
:101EDC0000221A77BB6803F00803002B20D0FB68A4
:101EEC0003F00803002B1BD07B681B686FF0080203
:101EFC001A617B6804221A777B681B68DB6903F024
:101F0C000303002B03D0786800F04CF905E07868E7
:101F1C0000F03FF9786800F04EF97B6800221A77E0
:101F2C00BB6803F01003002B20D0FB6803F01003F8
:101F3C00002B1BD07B681B686FF010021A617B684A
:101F4C0008221A777B681B68DB6903F44073002B4B
:101F5C0003D0786800F026F905E0786800F019F9EC
:101F6C00786800F028F97B6800221A77BB6803F0C8
:101F7C000103002B0CD0FB6803F00103002B07D0EE
:101F8C007B681B686FF001021A617868FEF7C6FE69
:101F9C00BB6803F08003002B0CD0FB6803F08003BC
:101FAC00002B07D07B681B686FF080021A61786881
:101FBC0000F06FFABB6803F04003002B0CD0FB68F9
:101FCC0003F04003002B07D07B681B686FF04002C6
:101FDC001A61786800F0F8F8BB6803F02003002B56
:101FEC000CD0FB6803F02003002B07D07B681B6828
:101FFC006FF020021A61786800F042FA00BF1037C7
:10200C00BD4680BD80B584B000AF786039600023D8
:10201C00FB737B6893F83C30012B01D10223B4E0B5
:10202C007B68012283F83C207B68022283F83D20E8
:10203C007B681B689B68BB60BB6823F07703BB6045
:10204C00BB6823F47F43BB607B681B68BA689A60EB
:10205C003B681B68B3F5005F3ED0B3F5005F00F240
:10206C008780B3F5805F00F08680B3F5805F7FD802
:10207C00702B1AD0702B7BD8602B50D0602B77D85C
:10208C00502B3CD0502B73D8402B58D0402B6FD8B2
:10209C00302B64D0302B6BD8202B60D0202B67D802
:1020AC00002B5CD0102B5AD062E07B6818683B6820
:1020BC0099683B685A683B68DB6800F06AF97B6892
:1020CC001B689B68BB60BB6843F07703BB607B6895
:1020DC001B68BA689A604FE07B6818683B6899681F
:1020EC003B685A683B68DB6800F053F97B681B68F7
:1020FC009A687B681B6842F480429A603CE07B687B
:10210C0018683B6859683B68DB681A4600F0CAF8E7
:10211C007B681B685021184600F021F92CE07B6885
:10212C0018683B6859683B68DB681A4600F0E8F8A9
:10213C007B681B686021184600F011F91CE07B6875
:10214C0018683B6859683B68DB681A4600F0AAF8C7
:10215C007B681B684021184600F001F90CE07B6895
:10216C001A683B681B681946104600F0F8F803E043
:10217C000123FB7300E000BF7B68012283F83D2044
:10218C007B68002283F83C20FB7B18461037BD4649
:10219C0080BD80B483B000AF786000BF0C37BD4603
:1021AC0080BC704780B483B000AF786000BF0C3740
:1021BC00BD4680BC704780B483B000AF786000BF70
:1021CC000C37BD4680BC704780B483B000AF7860DC
:1021DC0000BF0C37BD4680BC7047000080B485B092
:1021EC0000AF786039607B681B68FB607B682B4AAA
:1021FC00934207D07B68B3F1804F03D07B68284AA9
:10220C00934208D1FB6823F07003FB603B685B686A
:10221C00FA681343FB607B68204A934207D07B68C3
:10222C00B3F1804F03D07B681D4A934208D1FB6801
:10223C0023F44073FB603B68DB68FA681343FB6074
:10224C00FB6823F080023B685B691343FB607B688F
:10225C00FA681A603B689A687B68DA623B681A68AD
:10226C007B689A627B680D4A934203D13B681A697A
:10227C007B681A637B6801225A617B681B6903F0D7
:10228C000103002B05D07B681B6923F001027B68DE
:10229C001A6100BF1437BD4680BC7047002C01404A
:1022AC000004004080B487B000AFF860B9607A6079
:1022BC00FB681B6A7B61FB681B6A23F00102FB68ED
:1022CC001A62FB689B693B613B6923F0F0033B613D
:1022DC007B681B013A6913433B617B6923F00A035A
:1022EC007B617A69BB6813437B61FB683A699A61CD
:1022FC00FB687A691A6200BF1C37BD4680BC704708
:10230C0080B487B000AFF860B9607A60FB681B6A74
:10231C007B61FB681B6A23F01002FB681A62FB6886
:10232C009B693B613B6923F470433B617B681B03F6
:10233C003A6913433B617B6923F0A0037B61BB6863
:10234C001B017A6913437B61FB683A699A61FB68EC
:10235C007A691A6200BF1C37BD4680BC704780B4D6
:10236C0085B000AF786039607B689B68FB60FB6868
:10237C0023F07003FB603A68FB68134343F00703D8
:10238C00FB607B68FA689A6000BF1437BD4680BC5E
:10239C00704780B487B000AFF860B9607A603B607A
:1023AC00FB689B687B617B6923F47F437B613B68A3
:1023BC001A027B681A43BB6813437A6913437B6127
:1023CC00FB687A699A6000BF1C37BD4680BC7047B9
:1023DC0080B485B000AF786039607B6893F83C308E
:1023EC00012B01D1022341E07B68012283F83C20C0
:1023FC007B68022283F83D207B681B685B68FB606E
:10240C007B681B689B68BB60FB6823F07003FB60F8
:10241C003B681B68FA681343FB607B681B68FA68AF
:10242C005A607B681B68144A934209D07B681B680E
:10243C00B3F1804F04D07B681B68104A93420CD1D7
:10244C00BB6823F08003BB603B685B68BA681343CE
:10245C00BB607B681B68BA689A607B68012283F852
:10246C003D207B68002283F83C200023184614375B
:10247C00BD4680BC704700BF002C014000040040EA
:10248C0080B483B000AF786000BF0C37BD4680BC11
:10249C00704780B483B000AF786000BF0C37BD4686
:1024AC0080BC704770B500260C4D0D4C641BA410FD
:1024BC00A64209D100F022F800260A4D0A4C641BF2
:1024CC00A410A64205D170BD55F8043B98470136BF
:1024DC00EEE755F8043B98470136F2E7442500082F
:1024EC0044250008442500084825000803460244FA
:1024FC00934200D1704703F8011BF9E7F8B500BF10
:10250C00F8BC08BC9E467047F8B500BFF8BC08BCC8
:04251C009E46704720
:102520000000000000000000010203040607080983
:1025300002030405060708090A0B0C0D0E0F101004
:042540000102000094
:042544003101000859
:042548000D01000879
:10254C006400000000127A0010000000010000007E
:0400000508000EA938
:00000001FF
